:020000041000EA
:1000000000B5324B212058609868022188439860DF
:10001000D860186158612E4B002199600221596106
:100020000121F02299502B49196001219960352056
:1000300000F044F80222904214D00621196600F024
:1000400034F8196E01211966002018661A6600F04E
:100050002CF8196E196E196E052000F02FF8012189
:100060000842F9D1002199601B49196000215960AB
:100070001A491B48016001219960EB211966A021F2
:10008000196600F012F800219960164914480160C1
:100090000121996001BC002800D000471248134993
:1000A000086003C880F30888084703B5996A0420EC
:1000B0000142FBD001200142F8D103BD02B5186610
:1000C0001866FFF7F2FF186E186E02BD00000240BE
:1000D000000000180000070000035F00212200005C
:1000E000F4000018222000A00001001008ED00E03C
:1000F00000000000000000000000000074B24E7A12
:1001000000200420F7010010CB010010CD010010E9
:10011000C9010010C9010010C9010010C901001077
:10012000C9010010C9010010C9010010CF01001061
:10013000C9010010C9010010D1010010D301001045
:10014000C1010010C1010010C1010010C101001067
:10015000C1010010C1010010C1010010C101001057
:10016000C1010010C1010010C1010010C101001047
:10017000C1010010C1010010C1010010C101001037
:10018000C1010010C1010010C1010010C101001027
:10019000C1010010C1010010C1010010C101001017
:1001A000C1010010C1010010C1010010C101001007
:1001B000C1010010C1010010C1010010C1010010F7
:1001C000EFF30580103800BE00BE00BE00BE00BECA
:1001D00000BE00BEF2EB88714891001078910010CB
:1001E0003802001090A31AE71E481F49086006C88D
:1001F00081F3088810471D480068002801D019487D
:10020000F3E70DA40ECC002902D000F012F8F9E7B4
:100210001749184A002000E001C19142FCD116495B
:100220008847164988471649884700BEFDE701C937
:1002300001C29A42FBD3704778910010C0000020A1
:10024000D838002090C900100000042000000420CD
:1002500090C90010001004200010042000000000CD
:10026000704700000000000008ED00E0000000D032
:10027000D838002038610020DD470010D50200107A
:10028000D5470010F8B5C04606480749091A8B1033
:10029000C90FC91810B5491003D0044B002B00D06A
:1002A000984710BDD8380020D83800200000000042
:1002B000054B10B5002B03D00449054800E000BFF2
:1002C000FFF7E2FF10BDC04600000000E04600203E
:1002D0002C8C001010B504F0BFFB00F00DF800F0FE
:1002E0009DF901200021404205F0CEFD00F09CF96F
:1002F00000F06CF8F5E7C04670B52D4986B02D4882
:1003000004F098FD80235B020293C31CC2011B030F
:100310001343294A050013400393284B05200593F6
:10032000274B049301F094FC02F0F4FC254902F001
:10033000D6FCEC21890502F0CFFC061C02F012FD70
:1003400084B20023002C0ED0200002F0E3FC011C3C
:10035000301C02F0BEFC8721C90502F0D4FC02F07B
:1003600001FDC3B21B02012624041C430294114C5C
:100370000721102000F090FA012310220021200014
:10038000009604F0D5FE2A0002AB0021200004F004
:1003900029FF802223685202334323600A4B1E70D8
:1003A0006368190011401342FAD1216106B070BD93
:1003B000308C001000003050FFFFFF9F00400020F5
:1003C000000006700024F44A3361002010B5104C80
:1003D0002378002B00D110BD01F020FA0D4B1A68D4
:1003E0005B68121A8B41002BF5DC01D1002AF2D197
:1003F00000232370084B1B78002BECD08022074988
:1004000052024B68180010401342FAD10861E2E72B
:1004100034610020903A0020336100200000305009
:100420000F4B70B51B78002B00D170BD80210D4A99
:10043000490253680B42FCD180239B05136101F0F4
:10044000EDF90025084C094A001969410B1E02DA32
:100450000120074B404209C20122064B1A70E4E713
:10046000336100200000305080380100903A0020B5
:10047000FFFFFF7F34610020F8B5DE4657464E4649
:100480004546654B020018788B46E0B5002803D03E
:100490005C78944200D17CE046241C5D002C04D0A2
:1004A00047255D5D954200D179E08C255D5D002D8D
:1004B00004D08D269E5D964200D177E0D2269E5DC7
:1004C000002E04D0D327DF5D974200D175E08C2742
:1004D0007F00DF5D002F05D01A21FF31595C91426A
:1004E00000D171E0AF214900595C8C46002904D04D
:1004F0006021FF31595C91426ED0D2214900595C94
:100500008846002904D0A621FF31595C91426BD066
:10051000F5214900595C894600291AD1002824D0C8
:10052000002C6CD0002D6CD0002E6CD0002F6CD025
:10053000614600296BD0414600296AD04946002017
:100540000724002912D0F0BCBB46B246A946A046FB
:10055000F8BDEC21FF31595C9142DFD1F621490011
:10056000595C5945DAD1072245E000244620604312
:1005700001241C541C1862705A46A27022000021EB
:100580004432033011801818402202F081FC200010
:10059000D9E79C788C4200D07EE700222BE04825EA
:1005A0005D5D5D4500D080E7012224E08E269E5DE2
:1005B0005E4500D082E702221DE0D427DF5D5F4563
:1005C00000D084E7032216E08D214900595C59458B
:1005D00000D087E704220EE0B0214900595C59455C
:1005E00000D08AE7052206E0D3214900595C59452D
:1005F00000D08DE70622462050431818A3E70124B7
:10060000B4E70224B2E70324B0E70424AEE70524EC
:10061000ACE70624AAE7C0469044002010B50021AC
:10062000002007F023F810BD7047C04670B50D00DC
:100630000400FFF721FF2900200006F0CDFD70BD6A
:10064000414B10B51A78002A02D05A78824240D025
:1006500046229A5C002A03D047229A5C82423DD00F
:100660008C229A5C002A03D08D229A5C82423BD075
:10067000D2229A5C002A03D0D3229A5C824239D0DB
:100680008C2252009A5C002A04D01A22FF329A5C13
:10069000824235D0AF2252009A5C002A04D06022F8
:1006A000FF329A5C824232D0D22252009A5C002AF7
:1006B00004D0A622FF329A5C82422FD0F52252004B
:1006C0009A5C002A04D0EC22FF329A5C824233D03A
:1006D00010BD9A788A42BBD1002125E048229A5C5D
:1006E0008A42BDD101211FE08E229A5C8A42BFD18D
:1006F000022119E0D4229A5C8A42C1D1032113E07D
:100700008D2252009A5C8A42C4D104210CE0B022AE
:1007100052009A5C8A42C7D1052105E0D3225200DB
:100720009A5C8A42CAD1062146224A43002198187F
:10073000462202F0ADFBCBE7F62252009A5C8A42D9
:10074000C6D10721F0E7C04690440020F0B54646E8
:10075000D6464F46C0B58846070016001C00FFF776
:100760008BFE051E60D000239946002C4BD04423FD
:10077000C35A002B61D13278002A6AD1FF32012C92
:1007800000D177E07178114263D1022C36D9FF2273
:10079000022B02D96A79D243D2B2B178114258D130
:1007A000032C6AD0FF22032B02D9AA79D243D2B2FA
:1007B000F17811424DD1042C62D0FF22042B02D9D2
:1007C000EA79D243D2B23179114242D1052C5AD0C2
:1007D000FF22052B40D8717911423AD1062C55D011
:1007E000FF22062B3CD8B179114232D1072C50D0D0
:1007F000FF22072B38D8F37913422AD1A146402C87
:1008000001D9402399464B469BB29A46EC1C4022A4
:100810000021200002F03CFB52463100200002F093
:100820003DFB44234A46EA524146380006F0D4FCD8
:10083000E0BCBA46B146A846F0BDC17832788A43DA
:1008400007D1012C16D0012B12D00279D243D2B29B
:1008500098E7FFF7E5FDD1E72A7AD243D2B2BAE7AB
:100860006A7AD243D2B2BEE7AA7AD243D2B2C2E700
:10087000FF2287E701239946C5E703239946C2E78C
:1008800004239946BFE705239946BCE7062399460A
:10089000B9E707239946B6E7094A83009A1810B5C5
:1008A00014684022544080322240064CC000A446C6
:1008B00063441A60044B9C466044416010BDC046CE
:1008C00004C0014004D0014000400140074B8000BB
:1008D000C3181B68C90092000A435A400C231340F6
:1008E000034A9446604403607047C04604C0014018
:1008F00004D00140064BC000C3181B6809045940CE
:10090000C0239B021940034B9C4660440160704722
:100910000440014004500140064BC000C3181B684E
:1009200009025940C0239B001940034B9C46604478
:10093000016070470440014004500140064BC00074
:10094000C3181B6809035940C0239B011940034B7E
:100950009C466044016070470440014004500140DF
:10096000054B8000C3181B684B4001211940034B05
:100970009C4660440160704704C0014004D00140BF
:10098000064B8000C3181B68054A0901594094466C
:10099000302360440B4003607047C04604C00140F0
:1009A00004D001400FB400B5084883B004F0A4F8A7
:1009B000049B002B07D005A91800019103F0D6FE77
:1009C000034804F099F8012003F0E8FE408C001081
:1009D000508C0010EFF3108072B6034A1368002B9E
:1009E000FCD0BFF35F8F70472C0100D0BFF35F8F47
:1009F0000022024B1A6080F3108870472C0100D04F
:100A000070B5EFF3108C72B60D4D2B68002BFCD037
:100A1000BFF35F8F0724CB08C618C05C01230C40CE
:100A2000A3401C000440034207D118433070BFF3B9
:100A30005F8F2C608CF3108870BD1000FFF7B2FF41
:100A40002C0100D0F8B54746CE46884680B5EFF376
:100A5000108C72B61C4D2C68002CFCD0BFF35F8F3D
:100A60009A4222D807210126894602E001329342A8
:100A700018D34D4637001540AF40D4080119045D26
:100A80002742F3D110003C430C70BFF35F8F00226C
:100A90000D4B1A608CF3108800280EDBC0BCB946E1
:100AA000B046F8BD01204042EFE7BFF35F8F00235F
:100AB0002B608CF31088012040424346002BEDD080
:100AC0000898FFF76FFFC0462C0100D0044A107849
:100AD000431CDBB2172B00D9102313707047C0469C
:100AE0009832002010B5064B064C82B001000093EE
:100AF00018221F232000FFF7A5FF02B010BDC0463B
:100B0000548C00104C4400200021044B044ABFF3D5
:100B10005F8F02C39342FAD17047C046000100D0F4
:100B2000800100D0054B064A1360064A13605360EB
:100B30009360D360136153619361704780808080BC
:100B400000E400E004E400E01F2318401E3B834063
:100B5000002905D0C021044A490053501360704752
:100B6000802201498B50FAE700E100E070B50D00EA
:100B7000EFF3108672B60F4A1368002BFCD0BFF358
:100B80005F8F0D4B10309B6884001B590B4A9342BA
:100B900003D09D4201D001F003F9074B9B681D5122
:100BA000BFF35F8FBFF35F8F0022024B1A6086F3A3
:100BB000108870BD240100D000ED00E0C1010010DC
:100BC000F0B5DE4657464E464546E0B50C0083B0CC
:100BD000EFF3108872B6634A1368002BFCD0BFF3A2
:100BE0005F8F614B61499A68030010339F00D559AC
:100BF00001938D4243D0A54254D05D4EAA1B2F2AAB
:100C00003DD85C4B9B461B68994601231A009C46C5
:100C100082404B4613401F22994663460240934050
:100C20009A4680225B4650469850BFF35F8FEFF3A1
:100C300005839B46002B37D0019B5B4501D001F01B
:100C4000AFF801232A009A439068844208D176E0E5
:100C50004B005B189B00F3189868844236D01A004A
:100C6000062151560029F3DA844254D04B46002B1A
:100C700027D0C02251463F4B5200995019603A4B41
:100C80009B68DD51BFF35F8FBFF35F8F0022354B51
:100C90001A6088F3108803B0F0BCBB46B246A94680
:100CA000A046F0BD0D00EAE72A0063469A4390682B
:100CB0008442D5D106201056130000280ADA0D0010
:100CC00031E0802351462B4AD150D8E706201856F0
:100CD000002821DB42001118890074188B46A16896
:100CE0009960E179D971062161569971002924DB57
:100CF000A488F11A640524155C44091909051E4CE1
:100D0000490D2143998013181C4A9B001178F31850
:100D100099711070AAE713005946002914D1FF31C8
:100D200091711749918015490A789A71154A9B1B50
:100D30005B415A43120D0A7098E71149E2E7062019
:100D4000105613000028C5DA0F4A1049D21A083A83
:100D50005002400D014399800D4952080A43DA8040
:100D600084E7C046240100D000ED00E0C10100107E
:100D70009C32002000E100E000E0FFFF3261002033
:100D800001BDFFFFAAAA0000D632002000F0FFFF3D
:100D900000F8FFFF70B501240443EFF30581EFF382
:100DA000108C72B6214A1368002BFCD0BFF35F8F02
:100DB0001F4B05001F4AED1A6D416A43120D1E4D6F
:100DC0008900AE6852B27658A6421CD00621595608
:100DD00091421CD012215956914222D01E215956BF
:100DE000914220D02A2159560324914210D0134B0E
:100DF00019781A708171BFF35F8F00220B4B1A6054
:100E00008CF3108870BDAB680D4C5C50EFE700248C
:100E10006100091989005B18FF21997109499980BE
:100E2000E5E70124F4E70224F2E7C046240100D0FC
:100E30009C320020AAAA000000ED00E032610020F0
:100E4000C101001001BDFFFF024B9C4661448900B7
:100E5000016070474000003470B5114C114DAC4238
:100E60000FD2FF262368002B0CD0FFF72FFE0100C6
:100E70002000FFF7E9FFA680BFF35F8F0834AC4284
:100E8000F0D370BDFFF722FE01002000FFF7DCFF6A
:100E90002671BFF35F8F0834AC42E3D3F1E7C0465D
:100EA000C8380020D838002010B50400FFF70EFE27
:100EB00001002000FFF7C8FFFF232371BFF35F8FFE
:100EC00010BDC04610B504000120FFF70BFE034B18
:100ED000C3189B002360BFF35F8F10BD4000003438
:100EE0000A4B1968EFF3108072B60A68002AFCD02A
:100EF000BFF35F8F1B68BFF35F8F00221A6080F320
:100F0000108840BF002000217047C04608610020C3
:100F1000F0B5DE4657464E464546E0B587B0EFF39E
:100F20000583032201251A40954091008846A94671
:100F3000B34B03925C58B34B1D60B34B04934B46C9
:100F4000B24843630823E55E002D37DAA3881BB25D
:100F5000002B00DBADE0A379002B00D0EEE00823EE
:100F6000E05E002820DB430062691B18DB00D31819
:100F70009E68DD68731C00D111E1A4480100414462
:100F8000826A0B69B71A9B1A9F4215D30123026A22
:100F9000039883401A420FD09C4800F037FC8D42E2
:100FA00002DCCCD18642CAD940BF07B0F0BCBB46F8
:100FB000B246A946A046F0BD0E61EDE762696B003E
:100FC00092465B19DB009A4453469E68DF6800F046
:100FD0001DFC8F42BADC00D103E1002F00DAE8E00B
:100FE0005246534652691B699346049A934200D174
:100FF000D9E052460821605E5288000459461043E9
:101000009847009001910099019A0B00100013433A
:1010100000D1CEE013000A00B61A9F41002806DB7B
:101020007A4800F0F3FB009E019F36184F4153466B
:101030009E60DF6000229A5E002A00DA86E7530095
:1010400099186069C900411802938B68C9689B466A
:10105000B94200DD7AE702D1B34200D976E708232E
:101060009C46A444059565462281A446029B2C001B
:1010700006E053009918C90041188D68C968AB464D
:101080009B18DB00C318B94206DC00D1B3E01C009A
:101090000023E25E002AECDA230064469C465346B5
:1010A0001A806346059D1D80A3881BB2002B00DAC1
:1010B00051E72269EFF3108172B61368002BFCD060
:1010C000BFF35F8F0123A7885B42A3803FB22369F0
:1010D000BFF35F8F00221A6081F31088002F00DABF
:1010E00039E72300083322009A4666697B00DB1942
:1010F000DB00F318996850468C460824115FDD68C0
:10110000002910DB029306E0AB4244D00023E15EED
:101110002000002906DB4C006418E4003419E36861
:10112000AB42F1DD029B078000201F5E1980002F7B
:10113000DCDA1400A379002B00D110E70023A3719F
:1011400026000823E15E08364B1C00D12CE708007E
:10115000A246656902E03E004B1C1AD04B005B18AA
:10116000DB00EF180A008C46E95E7B881BB2002B7F
:10117000F1DA01235B42DC17BB60FC60824205D0E0
:10118000534631801B893B8053461A8160464B1C75
:10119000E4D15446E5E6A3686345B7D9C2E76B1CC2
:1011A00000D0EAE6F8E65B4658461B6998470028F7
:1011B0001BD153461B8822692381EFF3108372B63B
:1011C00011680029FCD0BFF35F8F514662880A8006
:1011D00022696580BFF35F8F0021116083F310885F
:1011E000B4E6864200D8F8E6B0E65B461A685B686B
:1011F0000092019307E7B34500D848E74CE7C046A3
:10120000E46000203C700540110F001000400540D4
:1012100070B52E4C2569002D04D00A212C48FFF70B
:1012200013FE70BD2B4E0321300000F0E5FAE6609E
:10123000FFF74CFC284B03229C46D02322701B0650
:101240001B6801216370254B6044A3600F2380005D
:1012500020610220638063694942A18019800231C4
:10126000198647311D83585218315A5275325C39EC
:10127000995218320131995218320131995218326B
:1012800001319952083518329D5202311832995263
:101290001832013199521832013199521832013104
:1012A00099521832013199521832013199520C4B2E
:1012B0000C49DC6001303562FFF758FC0121032046
:1012C000FFF742FC084B1D60A7E7C046E432002050
:1012D000086100200040054040000034FFFF10007E
:1012E000E4600020110F001038600540F0B5C646DC
:1012F000060000B518200F00904601F081FD051E84
:101300003FD01821404601F099FD39006861300056
:1013100000F072FAEE60FFF7D9FBD0222F701206B0
:1013200012681A4B6A709C460122434652429BB295
:101330006B819B186B8043466044800028612A8142
:10134000AA80002B0BD05A006C694244D200104B8B
:1013500012192380013318349BB29442F9D101242D
:10136000BC400C4BBA0038000B493462D550FFF733
:10137000FDFB01213800FFF7E7FB084B9C46664464
:101380003460280080BCB846F0BDC0464000003440
:10139000FFFF0000E4600020110F00103820000063
:1013A00070B501000469EFF3108C72B62068002854
:1013B000FCD0BFF35F8F02200D5E4C6968004019BE
:1013C000C00024180869002D36DB26884E80BFF344
:1013D0005F8F002606608CF31088E36063880498B2
:1013E000013320615B0405985B0CA26060611A1CEC
:1013F000002B1FD093B22804628018430A69EFF3D0
:10140000108C72B61368002BFCD0BFF35F8F8B88F3
:1014100023808D800B69BFF35F8F00221A608CF3ED
:1014200010880B7801329A40CB6808498C46634497
:101430001A6070BD0122DDE7BFF35F8F00230360F8
:101440008CF3108801204042F3E7C0463C200000A6
:1014500010B543890A1493421ADD53009B18426960
:10146000DB00D3180469EFF3108C72B62268002AEF
:10147000FCD0BFF35F8F5A88090494B2090C8A42EA
:1014800008D00369BFF35F8F00221A608CF31088C5
:10149000002010BD8022120214435C8001230269E7
:1014A0008371BFF35F8F002111608CF310880449B2
:1014B00002788C469340C268012062441360E8E7DA
:1014C0003C200000F0B5C64600B582B0040000F034
:1014D000A5F9FA2206000F00200000230021920047
:1014E00001F0DAFB8019794104000D1E02DA0124B3
:1014F0002E4D644206267642F71736196F41AF42E9
:1015000014D811D000F08AF932003B00121A8B4136
:10151000002B15DC002B46D02000290000F00AFA31
:1015200002B080BCB846F0BDA642EBD90026002729
:1015300000F074F932003B00121A8B41002BE9DDF8
:1015400000F06CF932003B00121A8B41002B0ADBD1
:1015500000230193164B3200009316483B00FFF71F
:101560001FFF0130D8D000233900B0469C46124AF4
:101570001248536A994204D8966A4645CCD2994299
:10158000CAD10668EFF3108772B63368002BFCD01F
:10159000BFF35F8F0368BFF35F8F66461E6087F3FC
:1015A000108820BFE5E7002AB6D0C9E7FFFFFF7F1C
:1015B000E10E0010E43200200040054008610020E8
:1015C000F0B557464E46DE464546E0B506000F00EC
:1015D00085B0EFF3058399468B46002B12D038492E
:1015E00000204B6ABB4206D38A6ADB1B591E8B4123
:1015F000B2424041184305B0F0BCBB46B246A946D2
:10160000A046F0BD2F4B9A46DB68984653461B78A0
:101610004046039300F0FAF84246039B040004336B
:101620009B009B580D001B1A39003000001BA9417C
:10163000894510DC0DD020BF214A0020536A5B454C
:10164000D9D3926ADB1B591E8B41B24240411843E9
:10165000D1E78342EFD900F0E1F832003B00121AE3
:101660008B41002B1ADB00230193174B32000093B0
:1016700050463B00FFF794FE011E0FDD104B5A6AE7
:101680005A451BD39B6AB34216D35046FFF7E0FE80
:101690000B4A0020536A5B45ADD3D2E7084A0020CD
:1016A000536A5B45A7D30020926ADB1BB2424041DC
:1016B0005A1E934118439EE75A45E6D120BFE4E7FE
:1016C00000400540E4320020E10E0010F0B5CE46A7
:1016D0004746110080B583B004009C460C9D194319
:1016E00000D16CE06146DB170193009353401E006C
:1016F000019B4B401F0000980199361A8F416346A9
:101700000A996B600B9BAC6029612A606B6100F0E9
:1017100085F880197941002902DA012031494042D7
:101720002269EFF3108972B61368002BFCD0BFF367
:101730005F8F0223E65E636972009219D2009B18E4
:1017400022699046002E42DB1A886280BFF35F8FC9
:10175000002247463A6089F31088234A9860D9608E
:101760001A615A885D6101325204520C111C002A20
:101770002BD088B23204024359802069EFF31087DE
:1017800072B601680029FCD0BFF35F8FA188198071
:10179000A6802369BFF35F8F0021196087F310884B
:1017A000124823788446013199400120E36863445C
:1017B0001960EA6003B0C0BCB946B046F0BD002372
:1017C0000126002701229C4699E70121D1E7BFF3BA
:1017D0005F8F0023136089F310880122002052429A
:1017E000E7E7C046FFFFFF7F110F00103C2000001D
:1017F000004870470040054010B5024A0248FFF714
:10180000FFF810BD708C0010504400200300416AA6
:101810000A00986A596A8A42FAD17047034B596A9A
:101820000A00986A596A9142FAD17047004005400F
:1018300070B504000D00174A536A1900966A536A7E
:101840008B42FAD13000190024184D41AB4216D812
:1018500013D0104B2A005B6A9D4203D90D494B6A95
:101860009342FCD3934207D10A4A02E0516A99425B
:1018700002D1916AA142F9D370BDA642E9D9054BC4
:101880005B6A1C005A1CEFD0012201246442E51758
:101890005242E3E700400540244B70B598420BD814
:1018A00043011B1A224A9B001818916AC000936AD0
:1018B0005B1A9842FBD870BDFA22002392000021E7
:1018C00001F0EAF904000D00194A536A1900966AFA
:1018D000536A8B42FAD13000190024184D41AB42B3
:1018E00018D9134B5B6A1C005A1C0AD0012301242F
:1018F0006442E5175B420E494A6A9A42FCD39A4217
:10190000D9D10B4A02E0516A9942D4D1916AA142DD
:10191000F9D3D0E7AB4205D0054A2B00526A954275
:10192000E9D8ECE7A642F7D9DBE7C0469BC4200024
:1019300000400540064A536A9942FCD807D1044B3F
:1019400002E05A6A914202D19A6A9042F9D87047ED
:1019500000400540F8B5040006200D0000F078F9BD
:10196000002844D0374B3849E3185A1E934180224F
:10197000120494465B429B0D344A9B0563441360FA
:10198000334A136018000A689043FBD12D4B314A4B
:10199000E31859424B4180215B00490006209952CF
:1019A00000F056F92900C00000F052FB0130C309D5
:1019B0001ED1402701226262A362266BF30722D464
:1019C000E36A254B0620E51800232B60266300F010
:1019D0003FF93900800000F03BFB7023E26A5A4077
:1019E0000E3313402B601D4B23630323A364F8BD08
:1019F0001B4A93421ED900231A4A1B4F6262A362FC
:101A0000266BF307DCD5194B144AE3181A60656A94
:101A1000A36A0620AD01ED1800F01AF9144900F090
:101A200017FBAD020100280000F012FB0021FFF7B8
:101A3000FFFEC5E74006800E9F011A003F18030015
:101A4000B9E7C0460080FCBF08C0004000E000408D
:101A500000F00040246100202C1000000103000071
:101A6000FEFF0000FFFF0000C0FF3F00303000001D
:101A70004E0E0000F8B5DE464E4657464546E0B5E8
:101A80008B4605000A991800160000F0E1FA0A9B3F
:101A90006C001F02324B64199C46A40064446368C6
:101AA00081469F4200D967602B1FDBB29846012B0D
:101AB00030D9C02380229B01E31812011A60294B00
:101AC000AD0059599A4600291BD17301E0262268BE
:101AD00053401E40802342465B01E3181E60012AEA
:101AE00030D9802380229B01E31812011A605346EB
:101AF0004A4667605A51F0BCBB46B246A946A0466A
:101B0000F8BD586900F0A4FA013043001B18033BEC
:101B1000FDD2DAE75B46012BCBD1C02303229B0128
:101B2000E3181A60023AA3681A42FCD07301E02657
:101B30002268AD0053401E4080230A4A5B01924652
:101B4000E3181E605A462168514003220A401A6079
:101B500001225B469A40A3681A42FCD0C1E7C04606
:101B60000080004058440020F0B546464F46D64617
:101B7000C0B51F00344B44009C462418A4006444A4
:101B8000636888461600FF2B02D880235B006360E1
:101B9000031FDBB29A46012B30D9C02380229B0160
:101BA000E31812011A60294B8500595999460029FA
:101BB0001BD17301E026226853401E408023524609
:101BC0005B01E3181E60012A30D9802380229B012B
:101BD000E31812011A6080235B0063604B465F517B
:101BE000E0BCBA46B146A846F0BD586900F030FAEC
:101BF000013043001B18033BFDD2DAE74346012BBB
:101C0000CBD1C02303229B01E3181A60023AA368D8
:101C10001A42FCD07301E0262268850053401E4022
:101C200080230A4A5B019146E3181E604246216800
:101C3000514003220A401A60012342469340A268A1
:101C40001342FCD0C1E7C046008000405844002049
:101C5000014B8000C058704758440020F8B504007C
:101C600021481E0017000D0000F0F2F901003800B5
:101C700000F0EEF9069B36041B031E432368002B7D
:101C800020DB1A4B1A49E3185A1E93418022920115
:101C900094465B421B0B174A1B0363441360164AAE
:101CA00013601F000A689743FBD1144B2560E218AC
:101CB0002123A06013602368002BFCDA0823E66070
:101CC0001360F8BD3F2322681340AB42D9D1A3680B
:101CD0001B051B0D8342D4D1EE22E368D2021340D0
:101CE000B342CED1EDE7C046001BB7000040FDBFB8
:101CF00008C0004000E0004000F000400430000058
:101D00008023024A9B000B43D3627047008005404A
:101D1000002310B50100988A1B8B984710BDC04660
:101D2000162310B50100188802331B88984710BD90
:101D3000F8B54746CE4680B50F1E18D014239946F5
:101D4000043304000025012698464B461888434674
:101D500021681B88984701C4431E984101350640FD
:101D6000AF42F2D13000C0BCB946B046F8BD012642
:101D7000F8E7C046AA23064A1B0113608D235B00C7
:101D8000D3600449044B19605368002BFCDA704798
:101D90000040024000B0FA00006002407047C046B8
:101DA00010B50148FEF7FEFD948C001070B5074D8C
:101DB000074EB54209D20024013E761BB60808CD75
:101DC000984723000134B342F9D170BDE88B00106D
:101DD000248C0010054B064A06491A60064A074B38
:101DE0001A6010000B689843FBD1704700E0004078
:101DF000BFCDFBFE08C00040FE7F3C0000F000406D
:101E0000044BDB6C002B03D18022034BD2021A60FF
:101E10007047C046000011504C201150044A054B39
:101E20001A60054A1368DB018033FBD17047C04656
:101E3000FFFFFF0100F0004008C000404022034BBC
:101E40009A675A671A67DA667047C04600F0014021
:101E500010B5FEF759FE10BDF8B52749274C284D9F
:101E6000641AA6103200302E00D9302228009200C9
:101E700001F014F8BC2C3BD830202F232C19640718
:101E8000204A801BE40F9B1B052B16D93700002C22
:101E900002D0B300771CEA50001B33199B004108A5
:101EA000EB18C900C9181A605A6008339942FAD170
:101EB000012303421CD09843C619B300EA50731C97
:101EC0002F2E15D09B00EA50B31C2E2E10D09B0055
:101ED000EA50F31C2D2E0BD09B00EA50331D2C2E04
:101EE00006D09B00EA50731D2B2E01D09B00EA50B8
:101EF000054B9D60F8BDC04600010010C0010010F8
:101F000000000020C101001000ED00E0002310B52A
:101F1000294C82B0A367FFF72DFF0122274B1A60DF
:101F2000636C012BFCD10322254B1A60224A936B70
:101F3000012BFCD1013300930121224A22480433B2
:101F4000FFF78CFE052301210093204A2048FFF76C
:101F500085FE0022022104201E4BFFF705FE002211
:101F6000012105201C4BFFF7FFFD00220021072067
:101F70001A4BFFF7F9FD002200210820174BFFF74D
:101F8000F3FD8023DB000093002200210920134B86
:101F9000FFF770FD0022104B00210620FFF7E4FD43
:101FA0000420FFF755FE0E4900F052F80100002012
:101FB000FFF7A6FE02B010BD008000403CB000401C
:101FC00030B00040002F685900800240008C8647E6
:101FD00000C00240001BB70040597307006CDC02D0
:101FE00040420F0001480421014B184700330020F4
:101FF000311D0010014B9B68184700000033002082
:10200000124A936F9B0815D29066D166002905D0BD
:10201000FFE7FFE7FFE7516F106F704704B58021BE
:102020000906C2175140002800D0C84306F094FDAD
:10203000002104BDF0B5146E556E576F166FFFF793
:10204000E3FF1466556657671667F0BD000000D0C1
:10205000114A936F9B0813D210665166002905D070
:10206000FFE7FFE7FFE7516F106F704704B50028E7
:1020700001D00020C04306F06FFD002104BDC04622
:10208000F0B5146E556E576F166FFFF7E5FF1466C7
:10209000556657671667F0BD000000D094464A4A5F
:1020A000926F9208624601D228E0C046F0B5464ED3
:1020B000346E756E776F366F00F020F89446424AA2
:1020C00014665566576716676246F0BD94463E4AE9
:1020D000926F9208624601D254E0C046F0B53A4E83
:1020E000346E756E776F366F00F04CF89446364A52
:1020F00014665566576716676246F0BD002B24DBF1
:1021000011D000293EDA00B5C943404200D1013167
:1021100000F038F8C943404200D10131DB4352425C
:1021200000D1013300BD002AEBD1002801D10029E4
:1021300005D00020C90FC90701D1C043410800B52F
:1021400006F0FAFC0022002300BD00B500290ADBDE
:10215000DB43524200D1013300F014F8C94340423E
:1021600000D1013100BDC943404200D10131DB4300
:10217000524200D1013300F005F8DB43524200D156
:10218000013300BD002923D1002B18D1002A0CD027
:10219000BC460D4F38667A6600210023FFE7FFE753
:1021A000FFE77A6F386F67467047002801D007480D
:1021B000010000B506F0C0FC0022002300BD0200B3
:1021C0000B00002000217047000000D0FFFFFFFF40
:1021D000002B00D0BFE0130C28D1002AE7D080B438
:1021E000114F39667A66FFE7FFE730B4040C7B6F66
:1021F000396F1B0423433B667A66FFE7FFE7FFE77F
:10220000C04684B27B6F3D6F1B0423433B667A66F6
:10221000FFE7FFE7C04600232C042D0C7A6F386FD0
:1022200000196941B0BC7047000000D0F0B5944679
:102230000025140E01D112020835140F01D112012C
:102240000435940F01D192000235D40F01D1520010
:102250000135D40B0134254F7C66254C3C660E0CB1
:1022600093B2FFE7FFE7FFE73C6F6643360C770367
:10227000BE467343DF0B5B04C01AB941130C7343B2
:10228000DB18C91ACE086643360CB64493B27343C2
:102290001F0F1B01C01AB941130C73431F0B1B0501
:1022A000C01AB941860D8F023E436643360C092D94
:1022B00024DB520A7243801A7703460A6643360CBF
:1022C00016235B1BDE40DF40BF1964466643821B5A
:1022D0007046043506330100D940A840C01900D328
:1022E0000131A24206D20023F0BD0000000000D060
:1022F000FFFFFFFF121B0130F3D3F1E709277F1B1C
:10230000FE406446A2B27243801A00D20139220C08
:102310007243130C1204821A99410B007046043563
:1023200013370100F940A840801900D30131002B78
:1023300002D1A2420AD2F0BD013000D30131121BFA
:10234000FAD2013BF8D1A24200D2F0BD013000D355
:102350000131121BF7E7F0B51C0C00D080E00CB483
:1023600000251C0A04D11B02160E33431202083545
:102370001C0B04D11B01160F3343120104359C0BB7
:1023800004D19B00960F334392000235DC0B02D13F
:1023900092185B4101351C00971864410134464F87
:1023A0007C66464C3C660E0CFFE7FFE7FFE7C04645
:1023B0003C6F6643360C7703BE4697B27743C01B2B
:1023C00000D20139C01B00D201399FB27743C91B2B
:1023D000C91B170C77437E04FF0B801BB941CE0845
:1023E0006643360C0C2D33DBB644120B1F053A4303
:1023F0001B0B97B27743C01B00D201399FB27743C2
:10240000C91B170C77433E043F0C801BB941860D56
:102410008F023E43664329277F1BFE400C3D7746D3
:10242000AF40BF1930BCA2B2ABB272437343801A43
:102430009941220C7243130C1204801A9941020034
:102440000B000137001BA941F9D2781E0021F0BD15
:102450000C277F1BFE4077467F0BAF40FF19E0E75C
:1024600000245D1C07D0144F7D663966FFE7FFE747
:10247000FFE7FFE73C6F95B29EB265436643401BA2
:10248000B141150C1E0C6543664336042F0C3E43C8
:102490002D04401BB141994204D202000B002000E0
:1024A0000021F0BD01D19042F7D3801A9941013447
:1024B0009942F2D3F6E70000000000D0FFFFFFFFD3
:1024C00048404140484018B41B4B5B68FC460193B0
:1024D00008BD04DF6B27001018B4174B1B68FC46BF
:1024E000019308BD00DF752700109446134A926FD0
:1024F000920809D2624618B40F4BDB68FC46019380
:1025000008BD0CDF2D2A00100C4AF0B5146E556E74
:10251000576F166F6246FFF7EEFF084A146655665E
:1025200057671667F0BD18B4034B9B68FC460193D0
:1025300008BD08DFD1280010983A0020000000D024
:10254000FFB550404240504059404B40594000E098
:10255000FFB5154F4C00640D03D0BC4204D10C03F1
:1025600014D80020090D09055C00640D03D0BC429D
:1025700004D11C030AD800221B0D1B0501264B4069
:1025800009D44B4003D58B4200D18242FFBD994212
:10259000FCD19042FFBD0B43DB1803431343F5D03E
:1025A000C9434918FFBD0000FF07000000B5FFF751
:1025B000CFFF804100BDC04600B5FFF7C9FF01D97C
:1025C000002000BD012000BD00B5FFF7B9FF01D913
:1025D000002000BD012000BD00B5FFF7B1FF804124
:1025E00000BD012040054A00121804D85A001218F4
:1025F00001D800207047012070470000002100280A
:1026000005D17047C1174840401AFAD0C90713B521
:10261000064B1B6898470CBC441CA2401005120BCB
:102620000349091B09051943114310BD046100202A
:102630001F04000010B54C00620D8023D218DB008F
:10264000D21A5B057E2A10DD9E3A13DACC170903F5
:10265000490819435242D140640001341532202AFE
:1026600005DAD0400843604310BD002010BD084685
:10267000604310BDC80FC018013810BD18B4044B1A
:102680005B6AFC46019308BD24DFDD2B00100000CF
:10269000983A0020132370B51D78012D19D014DD50
:1026A0001F48FFF73DFB06001E48FFF739FB1E4C95
:1026B00080223100200000F0F1FB022D2DD01B48BC
:1026C000FFF726FB1A4B186070BD1A4B164CA3641B
:1026D000F5E7184B144C23606360A360E36023614B
:1026E0006361A361E36123626362A362E3622363C4
:1026F0006363A363E36323646364A364E3642365A4
:102700006365A365E36523666366A366E366236783
:102710006367A367E367A364D1E7064BA364CEE7CF
:102720005344000053460000983A00204C33000008
:10273000046100203927001007B5604601880A0AA5
:102740000230DF2AFAD1C9B2820804D30288408855
:102750000004104300E00068014A5050039007BD98
:10276000983A00200FB403BC0CBCF0B50124E40778
:10277000634000E0F0B50C0DCF0F661E3605891BD7
:10278000640503D3C943404200D30131640D03D033
:10279000661CF60A07D0E41B00207F00791C89071D
:1027A0008912803C24031D0DDF0F6E1E36059B1B16
:1027B0006D0503D3DB43524200D301336D0D03D0CB
:1027C0006E1CF60A07D0ED1B00227F007B1C9B07C6
:1027D0009B12803D2D032F1B661B58D4A446202E30
:1027E00046DA20371400BC401D00BD40F2403341A2
:1027F0002A4380185941CB0F05D0C943C04300225A
:1028000064425041514162464D0D28D10D0D07D112
:1028100000281FD0241940414941013A0D0DF9D03B
:10282000640006D3013000D30131002C01D14008EF
:102830004000013A0BD4941CE40A04D1120511445F
:10284000DB071944F0BDD907204B194300E0D90735
:102850000020F0BD0029DDD1002CDBD1F0BD01321C
:10286000C6074008CD0728434908002EE1D0D9E724
:102870003C2E29DA203E40371400BC4000D0012411
:10288000F24014431A00BB401C43D317ACE7AC46DC
:10289000202F08DA20360400B4400D00B540F8407F
:1028A00039412843A5E73C2F0CDA203F403604008D
:1028B000B44000D00124F84004430800B1400C4368
:1028C000C117EAE710001900002494E70000F07F28
:1028D000F0B50C0D661E3605891BE60A6405640D0D
:1028E00002D0651CED0A04D0002001210905803CBE
:1028F0002403A4461C0D671E3F05DB1BE70A640585
:10290000640D02D0651CED0A04D0002201231B05D2
:10291000803C24037740644497B484B296B27443F5
:10292000070C7E43150C6F4380B26843361802D300
:10293000012000043F183004350C00197D41844605
:1029400088B29AB250430C0C62431F0C7C438EB287
:102950007E43921902D301263604A4191604170CDB
:102960003618674101BC81B29AB25143040C6243EC
:102970001B0C5C4380B25843121802D301200004A0
:1029800024181004130C401863412D185E410020D8
:10299000474106BC88B293B258430C0C6343120CF7
:1029A000544389B251435B1802D3012109046418CE
:1029B00019041A0C091862416D185641002047414C
:1029C00018BCF902720D1143F0026A0D1043ED02BA
:1029D0000A0D03D16D1940414941013B124E9B1B29
:1029E0007600B3420ED26D0007D30130002671414C
:1029F0006646354301D1400840001B05C918E4076D
:102A00002144F0BD0BDA013306D1013004D101318C
:102A10004F0D01D04908F2E7E1070020F0BD013673
:102A200031050020EBE70000FF030000F0B51C0DAE
:102A3000671E3F05DB1BE70A6405640D02D0661CB8
:102A4000F60A04D0002201231B05803C2403D02574
:102A50002D060026F6432E661E096E66CE0FF61969
:102A6000B44649004F0D02D07E1CF60A03D0002068
:102A70000021403F3F033E1BB600B444013F7F05A9
:102A8000C91B49082E6F013676089C02950D254317
:102A90007543ED137543AD1301356D10F603761BC9
:102AA0000CB4CC02450D2C43A2B2B3B25A43270C4E
:102AB0007B43350C6F43A4B26C431B1902D3012432
:102AC00024043F191C041D0CA4187D4124196D41D8
:102AD000009A91B2ACB26143170C7C432B0C5F435C
:102AE00092B25A43A41802D301221204BF1822043E
:102AF000230C52187B41019C6C431B19520ED901C7
:102B00000A434401A01A81B2B2B2514303145A439A
:102B1000360C734387B27743D617D21900277E410C
:102B200036049B191704160C7F185E417316ED18B6
:102B3000F301002680337541A90F06D16400690AAC
:102B4000E8055B0A184309D22FE00422944480333D
:102B50007541A90AA8059B0A184326D3404149415B
:102B60002404009A019B0D005543641B4343E41A5F
:102B700095B286B27543170C7E43030C5F4392B245
:102B80005A43B61802D301221204BF183204330C80
:102B900052197B4152429C41002C02D40022013048
:102BA00051414008CA071043490802B06246D7079E
:102BB0009210084BD218084B9A4203D2120589187A
:102BC000C919F0BD0020002A01DC3900F0BD013335
:102BD0001905F5E7FD030000FE070000002200B51F
:102BE000203200F004F8080000BD000000220B15A0
:102BF0000AD410B5944600F031F81414013400DA08
:102C00000021CB17144C204700200021704762445C
:102C1000343A0CD40C2A07DA040091409040524216
:102C20002032D440214310BDD843D94310BD2032B7
:102C300007D40C469440524220321141D0402043E8
:102C400010BD0800C917203203D45242203210416F
:102C500010BD1800190010BD0F2C00100A0DCC0F6C
:102C6000531E1B05C91A520503D3C943404200D362
:102C70000131520D03D0531CDB0A07D0121B002078
:102C80006400611C89078912803A1203014BD21A31
:102C900070470000FF03000051434343C9188C46AE
:102CA000110C83B24B4310B4040C614392B280B256
:102CB000504362431C041B0C001910BC59411304FF
:102CC000120CC01851416144704700004840414017
:102CD00048400E4B5B6818470C4B1B6818470C4A62
:102CE000936F9B0802D2094BDB681847F0B5146E4E
:102CF000556E576F166FFFF7F6FF054A1466556657
:102D000057671667F0BD014B9B681847983B00203A
:102D1000000000D0491A002808D10846704700007A
:102D2000C10FC90700D54042002817D0F44603B4AC
:102D30000B4B1B68984706BC81409E38404280314F
:102D400007D20B0607D04900490AC00510430843C3
:102D500060470130F8E7490A8902F5E7704700004B
:102D600004610020014B5B6A18470000983B00207B
:102D7000132310B512481C78FEF7D2FF0100012C76
:102D80000AD003DD80220F4800F088F80E48FEF7D5
:102D9000BFFF0E4B186010BD0A4C5422200000F0FB
:102DA0007DF80B4B6365A365E36523666366A366E5
:102DB000E36623676367A367E3672362E361E5E78D
:102DC00053460000983B00204C3300000461002073
:102DD000D52D001007B5604601880A0A0230DF2AA7
:102DE000FAD1C9B2820804D3028840880004104393
:102DF00000E00068014A5050039007BD983B002056
:102E000070B504000A4E300005F0E6FE200005F023
:102E1000D5F90500300005F087FE002D05D0054BE3
:102E20002C199C4201D8280070BD0348FDF7BAFD5B
:102E3000C838002000000420A08C0010F8B506005F
:102E40000C000C4F380005F0C7FE2100300005F0E3
:102E500055F90500380005F067FE7443002D05D0D4
:102E6000054B2C199C4201D82800F8BD0348FDF7FA
:102E700099FDC046C838002000000420A08C001036
:102E800001480421014B184710330020311D001068
:102E9000014B1B681847000010330020014B5B6892
:102EA00018470000103300207047C046F8B5574659
:102EB000DE464E464546E0B599460A9B07009A46CF
:102EC0000D9B884693460B9C9B073BD10C9B9C42D9
:102ED0003DD21E1B0B9415000C005E442A004B468D
:102EE000013521002020B847B542F7D1A0460B9C00
:102EF000002C20D0454636195346321B013C185D44
:102F000029004B46B847002CF6D12B0035009846D7
:102F10000D9B9B070FD55B46EC1A0C9BA3420AD96D
:102F2000464698462A004B46310020200134B847D7
:102F300001354445F6D32800F0BCBB46B246A9464D
:102F4000A046F8BD16001500002CD3D1E0E716000E
:102F50001500002CCED1EEE7F0B54546DE465746CB
:102F60004E46E0B585B09C4610AB1B78149F934647
:102F700098460F9C129E139DBB074CD4002D42D146
:102F8000B44248D201233B4099460E9B013B9A46EE
:102F9000302304E0524601341355A64201D9202CB7
:102FA000F8D14B46002B00D183E00E9B013B9946A4
:102FB0003023A54205D82EE04A4601341355AC42D1
:102FC00029D0202CF8D1FB060CD57B0554D4A64281
:102FD00063D0A54261D0119B102B50D0022B57D04B
:102FE000202C32D1202301930E9B5A460093039745
:102FF00063460295FFF75AFF05B0F0BCBB46B246E8
:10300000A946A046F0BD01233B40994601233B421F
:103010002AD1B442B9D3FB061CD57B05DBD4002CE6
:10302000D5D1119B102B5BD0119B022B6BD0302381
:1030300001240E9A13704346002B10D17B073ED516
:103040002B260E9A631C1655CDE72300013430263B
:103050000E9AD654202CC5D04346002BEED02D26F8
:103060000E9A631C1655BEE74346002B2FD0013D38
:10307000B44200D289E798E7119B102BB2D1BB066E
:1030800037D5202CAED058230E9A13550134A7E71C
:10309000202CA7D02300013407E0631E012CC0D0F0
:1030A000119A102A31D0022AD1D162260E9AD65412
:1030B00096E7FB06CED57B0500D488E78BE7230097
:1030C0003E0790D520260E9A013316558BE70C2328
:1030D0003B405A1E9341ED1AB44200D255E764E7D3
:1030E000BB060ED478230E9A02241370302353703B
:1030F000A1E7202C00D175E778230E9A13550134EF
:103100006EE75823EFE76033EDE70E9AA61E91466F
:103110004E44BA0602D55822327098E778223270AF
:1031200095E7C04610B5002800D110BD01F09AFC0B
:10313000FBE7C0460B0010B5002802D049681B68A9
:10314000984710BDF0B55746DE464E464546E0B5B9
:1031500095B083460F00924698461E9A1F9B10001A
:103160001900209EFFF73DFA002800D0EAE11E98E2
:103170001F990122C54B5242FFF718FA002800D0D0
:1031800014E11E981F990122C14B5242FFF724FA05
:10319000002800D0E9E01E981F990022BD4BFFF7E0
:1031A0001BFA002800D0C8E01E981F990022BA4BD5
:1031B000FFF7FCF9002800D0BFE01E981F990022FD
:1031C0000023FFF7F3F9002800D0E4E000230B937D
:1031D000229B5B0500D406260024302307E017213C
:1031E00006AA013452181355013E202C01D0092E95
:1031F000F5D81E981F99FFF71DFAA84BF2009B18EF
:103200001A685B68050008920993FFF7FBF9020052
:103210000B001E981F99FFF756F9089A099BFFF7B4
:1032200082F906900791FFF729FA8146FFF7E6F940
:1032300002000B0006980799FFF745F90022984B0A
:1032400006900791FFF7C8F9002800D10DE101238E
:103250009C46E1444846FFF7D1F902000B0008986C
:103260000999FFF7A9F9002802D0002399460135F2
:10327000002E00D1D9E006954D46B94614E006AAC5
:10328000944617230A216344280001341F19FEF7CE
:10329000DFFE3031397028000A21013EFEF7D8FEEA
:1032A000092D00D817E10500202CE8D14F46069DD6
:1032B00020240CAE06AA17239446634499465B4625
:1032C000B34606930FE04B4628000A210134E61866
:1032D000FEF796FE3031280031700A21FEF790FE8D
:1032E000051E00D1E4E0202CEDD1069B5E469B46F6
:1032F0000323229A1340012B18D1219B002B15D0B8
:103300000B9B002B00D1FDE0219B013B2193202B47
:103310000CD93023219A07E0172006A90134091897
:103320000B55944200D3CCE0202CF5D1229B019484
:103330000393219B0096029322E0229B5246049322
:10334000219B3900039358461E9B1F9C02960093B5
:103350000194434600F04AF90400200015B0F0BC87
:10336000BB46B246A946A046F0BD229B5B070FD4E0
:1033700003224C4B229901920391219900930291CF
:103380004346524639005846FFF790FD0400E4E7F3
:103390000422454BEEE71E9A1F9B00200021FFF7F9
:1033A00092F801231E901F910B9311E7229B544624
:1033B0009B0711D1219B042B0ED9219B55469C467E
:1033C0005E46043C64442A0043460135390020200F
:1033D000B047A542F7D1B346344D26002B1F99467E
:1033E0005B46A3461C003200E87843463900013DA5
:1033F000A04701364D45F6D123005C469B46229BF3
:1034000004349B07A9D55346219AE31A9A42A4D9BA
:103410005E4615002200434639002020B04753463F
:103420000134E31A9D42F5D897E72800FFF7EAF840
:1034300002000B001E981F99FFF745F80022184B59
:1034400006900791FFF7B2F80CAE002800D031E7E4
:10345000069807990022124BFFF7BEF8002800D00B
:1034600028E7012301359D4324E7002206980799A8
:103470000B4BFFF79BF8002800D0F9E64B46002BDA
:103480005CD101239C46E144F2E6C046FFFFEFFF1A
:10349000FFFFEF7F65CDCD4165CDCDC1C08F001061
:1034A0000000E03FF88C0010F08C0010008D001040
:1034B000069B5E469B460323229A1340012B00D1B4
:1034C00081E0202C00D131E70B9B002B27D02D234E
:1034D000335501342AE74F46069D202C00D1E7E6FC
:1034E0003022331907E0172006A9013409180A55BC
:1034F000202C00D1DCE6A342F5D12E220CAE013403
:10350000F254D7E60C23229A134257D0219B013B59
:103510002193A34200D9FCE6202C00D106E7229B90
:103520005B0703D52B2333550134FFE6229B1B0792
:1035300000D4FBE6202333550134F7E6DB0700D443
:1035400096E69EE7229B55469B0711D1219B032BB4
:103550000ED9219B54469C465E46033D654422009D
:103560004346013439002020B047AC42F7D1B3467E
:10357000B9465F461C4EEC1C2A00B07843464946CB
:103580000135B847013EAC42F6D1229BBB464F46BF
:103590009B0700D4E1E65346219AE31A9A4200D8E9
:1035A000DBE65E4615002200434639002020B04786
:1035B00053460134E31AAB42F5D3CEE6219BA34236
:1035C00000D9A6E6B2E6219B002B00D179E70B9B40
:1035D000002B97D0219B013B21939C4200D298E67F
:1035E000202C00D073E7A1E6FC8C0010F0B5DE467D
:1035F00057464E464546E0B599B081468B469246C1
:103600009846229A239B10001900FEF7EAFF002833
:1036100000D0CAE0229823990122824B5242FEF741
:10362000DBFF002800D0C0E02298239901227E4BC6
:103630005242FEF7BBFF002800D0B6E02298239943
:1036400000220023FEF7B2FF002800D0C9E1229B30
:10365000239C08930994089809998023269ADB00F3
:103660001A400D928022269C1201144022000B94D5
:10367000269C07000E001C4200D0ADE00B00034367
:1036800000D0D5E0002A00D00AE2220006332493BD
:10369000022313400C930223134200D002E2259B25
:1036A000042B00D20FE2043B0B93002304250A9362
:1036B0000022229823990023FEF778FF002800D0EB
:1036C00003E25A4B269A134004930B9B0393249BCB
:1036D0000293089B099C0093019459464346524625
:1036E0004846FFF72FFD02002020269B1F2703409E
:1036F00059424B415B421840531C0893594643467C
:103700004530C8470A9AD317D4185C40D30F0A93A0
:103710006B1E0B9308AB9C460025674401E0202DEF
:103720000FD020000A21FEF793FC01357E193031BD
:10373000317020000A21FEF78BFC26000400092EC0
:10374000EDD8052306930B9B59460593002304935C
:103750000A3303930A9B4846029310AB0093089ADE
:1037600043460195FFF7F8FB0C9B002B2DD05346E9
:10377000C41A259BA34228D94D465F4681461E00A8
:10378000534639001A19202043460134A847A6425F
:10379000F6D8534648462599C21A01320023914271
:1037A00000D386E1013018180FE0269B0493259B77
:1037B0000393249B0293229B239C009301944346F2
:1037C000524659464846FFF7BDFC19B0F0BCBB460F
:1037D000B246A946A046F0BD01432BD10B9B220067
:1037E000002B00D154E700230A93249B0A9A00245B
:1037F000934200DD85E12298239900220023FEF701
:10380000D5FE002800D035E1269B084A02941A40D4
:103810008023DB0013430493259B0393089B099C9F
:10382000CBE7C046FFFFEF7FFFFFEFFFFFF7FFFF94
:1038300006232493B44B70009C46400D6044FEF771
:10384000E1FEB24AB24BFEF76EFEB24AB24BFEF751
:1038500043FE3603B14B360B334304000D003800F2
:1038600019000022AE4BFEF72EFEAE4AAE4BFEF71D
:103870005AFE02000B0020002900FEF72DFEFEF785
:10388000D9FE0A90FEF7BEFEA84AA94B04000D001F
:10389000FEF749FE0022A74BFEF71EFEFEF7CAFE0A
:1038A000A54A0600A54B20002900FEF73CFE0400B7
:1038B00030000D000C96FEF7A5FEA14AA14BFEF7C5
:1038C00032FE02000B0020002900FEF7FCFD020082
:1038D0000B0006000F00FEF726FE320004000D006C
:1038E0003B0030003900FEF7F7FD00220E900F91EB
:1038F000954B20002900FEF7F8FD0022934BFEF7C0
:10390000EBFD02000B0020002900FEF7EEFD002277
:103910008F4BFEF7E1FD02000B0020002900FEF7AF
:10392000E4FD0D008021040032003B000020C905A9
:10393000FEF7C9FD02000B0020002900FEF7CCFDB8
:1039400002000B000E980F99FEF7CFFD0022734B7B
:10395000FEF7C2FD7F4B0C9C9C466444002223056D
:10396000FEF7E1FD06000F0002000B000898099920
:10397000FEF71CFE00280AD00A9B3000013B3900EC
:103980000A930022714BFEF7B0FD06000F000A9A61
:10399000330063323900C62A12D802222698042541
:1039A00010400B9A0C90002A25D1259B042B05D999
:1039B000002800D0A1E0259B043B0B93042541E0A7
:1039C0000222269810400B9A0C90002A12D1259BB7
:1039D000052B76D9002872D1259B0525053B0B9335
:1039E00034E0802212069446229B0893239B634472
:1039F000099330E605250B4300D1F6E608980999AE
:103A0000554A564BFEF7E0FD002808D00898099962
:103A10000022534BFEF7CAFD002800D0E5E6249BA8
:103A2000002B1CD00D9B002B19D0249B013B249311
:103A3000259BAB4204D90C9B002B5AD002230C933C
:103A400000230B930A9B002B00D131E608980999BB
:103A500032003B00FEF749FD0890099128E6259BBE
:103A6000AB42EDD90C9B002B43D000230B930233C8
:103A70000C93E7E78020269B3A4A00061A408023F1
:103A800084460294089C099D2900DB00134304939B
:103A9000259B6144220003930B00009201938EE664
:103AA0000524A8E600230B930A93023304250C9304
:103AB000FEE553468C46013B63441B1A72E6022323
:103AC0000C930525C2E70423EDE58020089E099F9D
:103AD000000639008446269A224B61441340049321
:103AE0000B9B32000393249B02930B0000920193E3
:103AF000F3E5259B5B1B0B93A4E7022304250C93A2
:103B0000A0E79C1A013C76E601FCFFFFFB799F5081
:103B10001344D33FB3C8608B288AC63F0000F03FF0
:103B20000000F83F61436F63A787D23F71A3790913
:103B30004F930A400000E03F1655B5BBB16B024001
:103B4000EF39FAFE422EE63F00002C4000002440F0
:103B500000001840FF0300002D431CEBE2361A3F23
:103B600080842E41FFF7FFFFF0B5DE4657464E46F4
:103B70004546E0B5A5B01E002E9B92460C93CD4A5B
:103B8000CD4B80468B461A60002900D1EAE1002324
:103B900030789946002800D1ECE1C84B4C460B9395
:103BA000C74B454657460E930AE0631C98462200D1
:103BB0003B005946A84744463078002800D187E0AA
:103BC00001362528F1D108239A46043B9946023B49
:103BD0009846013B00229C460D943078711C0300EE
:103BE000203BDBB2102B03D80B9C9B00E3589F4675
:103BF0000300303B89460D9C092B3AD90023984697
:103C00002A2800D1C1E000239A462E284BD0030079
:103C1000683BDBB2122B1ED80E999B00CB589F46F7
:103C200063460E001A43D8E743460E001A43D4E712
:103C30004B460E001A43D0E710230E001A43CCE780
:103C400053460E001A43C8E780235B001A43FF3B2C
:103C50009C467078E1444E4667284FD82428A4D962
:103C60000300253BDBB2422B9FD896499B00CB58E3
:103C70009F46002394461E0000E00131B3009B19CB
:103C80005B001E180878303E0300303B092BF4D946
:103C90000123624689469C460023B0469A460E00A0
:103CA000E1442E28B3D13021802049428C46C00007
:103CB000024370784B4684446146092900D86CE180
:103CC0002A2800D17AE101239C464E46E1449EE732
:103CD000A146A846BA46CA4503D801235B425344CD
:103CE000994653464A4659460020C047200025B011
:103CF000F0BCBB46B246A946A046F0BD0300693BF6
:103D0000DBB20D930F2B00D94FE7012199408C4670
:103D10006D49894661464B4619400F9163464946B5
:103D20000B4200D028E10D9B0A2B3AD0072B00D084
:103D30003BE70C9B190008C98846002B00D14BE1DA
:103D400021200243914614A98C461F220F21624470
:103D50008C4651460D950C91A24615000F9902E034
:103D600020290CD0130064461C4020003730092C59
:103D700000D80738013168541A090F2BF0D80C9B72
:103D800054460D9D9A460F9133E10C9B02CB884619
:103D9000002947DB0C9301239C4670784E46E14492
:103DA00031E70C9B02CB14935346002B00D138E132
:103DB0009C4608780B000C908C44002801D100F040
:103DC00098FC89466146944603E05A780133002AFC
:103DD00001D08B42F9D1494662465B1A0C900F9391
:103DE000530500D520E10223180010400D90134226
:103DF00000D1CBE30D930B1BB1469A465E460C985F
:103E000022003B003100A84753460134185D0028CA
:103E1000F6D1B3464E460D9B002B00D0C7E1149B54
:103E20000C93C9E60C9301239C462838494202436F
:103E3000884670784E46E144E5E670786C2800D1FB
:103E40007FE180235B001A43FF3B9C46E14402E78D
:103E500080239B001A4301239C467078E144FAE6D4
:103E60007078682800D173E180231A437F3B9C4619
:103E7000E144F0E6672800D103E1472800D15AE188
:103E8000452800D15AE10492072142460C9B039237
:103E9000073352468B43190002920CC92800009246
:103EA00001930C9122003B005946FFF79FFB040051
:103EB00082E6C046693B0010D4460020208E0010E8
:103EC000648E0010B08E001041900000462800D192
:103ED000DBE00492072142460C9B039207335246D3
:103EE0008B43190002920CC92800009201930C9197
:103EF00022003B005946FFF725F904005CE6631CED
:103F0000984622003B0059462520A847444653E6E0
:103F10000C9B04330D93631C9946920700D422E155
:103F20000C9B2200187859463B00A847434644445E
:103F3000012B00D885E23300B8462E005F462500ED
:103F40004C46994622004346013439002020B047B0
:103F5000AC42F7D12C00BB46350047464E460D9B80
:103F60000C9329E6DB4B30789846002399460028CD
:103F700000D012E60024AEE66F2800D188E000D819
:103F80000BE31023782800D1CFE09A430A239C4604
:103F900000230F930A330D9380E05646B100891930
:103FA000490001330E181878303E010030390929D4
:103FB000F4D9B2461E000133994628E60C9B02361E
:103FC00002CB8A46C9435046C917084082460C9323
:103FD0003078731C99461AE6102310009843113369
:103FE0001843814680201300C0000340024200D1E4
:103FF000A9E64B46069308230593534604931023E2
:104000000393002302930F9B220001931CAB0093A8
:1040100059463B002800FEF79FFF434604000C93DF
:10402000CAE501235B42C3E60F9B534501D95346C2
:104030000F930223180010400D90134200D1B7E1F6
:104040000D93D1460B1B9A463300A1442E0022004B
:104050004D460C98B9465F469B4608E04B463900F2
:10406000541CB0475346185D002877D02200954273
:10407000F4D15B46BB464F46A94635004C461E0070
:10408000C9E680231B011A43FDE620231A4320E7DB
:1040900008239C4600230F9308330D9380231100BF
:1040A000DB0019401A4200D116E10D239A4310009B
:1040B000802302009B001A401492184200D0C2E1F3
:1040C000802302005B001A4091460C9A04320F9242
:1040D000184200D0B7E2430600D59FE1030600D4A2
:1040E00019E30C9B1B880993002B00D0FCE11033D3
:1040F0009843002900D1F7E10023994643460593F0
:10410000534604930D9B069003930023D2E0582856
:1041100008D0622867D102239C4600230F93023304
:104120000D93BBE720231A43103B9C4600230F93BB
:1041300010330D93B2E780231B011A4320231A4347
:10414000A1E6C0239B001A43F31C9946B07882E590
:10415000C0231A43F31C9946B0787CE535005E46CF
:10416000BB464F4657E64346012B00D863E1631E2A
:1041700043449A463300B9462E005F4655469B4657
:10418000A24622004B46013439002020B047AC4201
:10419000F7D135005E46BB464F46A14654460C9BC0
:1041A0004A46187859463B004444A847D7E6A146FA
:1041B0000F9B984500D832E64444E41A3300B846D1
:1041C0002E005F4625004C469946220043460134A6
:1041D00039002020B047AC42F7D12C00BB46350057
:1041E00047464E461BE680231000DB0018401A426B
:1041F00000D10FE1112118008A430D920D9A8023FE
:1042000011009B0019408C461A4269D1802311008D
:104210005B00194089460C9904310F911A4200D075
:10422000CAE113005B0600D5F0E013001B0600D4C2
:1042300059E20C9B00229B5ED9175A184A4092B251
:10424000D90F0C91002B00D1F9E1100014AA94466B
:1042500042461F23149252466344A84616944D4684
:104260000400B946B2461F00159201E0202D0FD080
:1042700020000A21FDF7ECFE01357E193031317046
:1042800020000A21FDF7E4FE26000400092EEDD8E7
:10429000149B4F46A94645469846159B56469A4656
:1042A000169C0D9B069343460593534604930A239D
:1042B00003930C9B02934B4601931CAB220000938B
:1042C00059463B002800FEF747FE0F9B04000C9365
:1042D00072E4C046A92E00100C239A431000E7E6B2
:1042E00007220C9B07339343013294469C44624659
:1042F0000C920CCBD90F0F911100194300D191E012
:10430000D91713911291514010911399594011915D
:1043100010981199129A139B801A9941109011913B
:1043200014AA0023944642469946149252461F33DB
:104330006344A846B24616944E46109C119DB94659
:1043400015921F0001E0202E10D0200029000A2223
:104350000023FDF7BBFE013630322B00BA550D00AD
:1043600022000400002BEED1092AECD8149B1094F3
:10437000119545469846159B4F46B14656469A4676
:10438000169C0D9B069343460593534604930A23BC
:1043900003930F9B02934B4601931CAB22000093A7
:1043A00059463B002800FEF7D7FD0400FFF704FC48
:1043B0000F9B984500D8C1E18023DB000D93434655
:1043C0000F9A1B199B1A994633002E004D46B94689
:1043D0005F469B460C9122004B4601343900202059
:1043E000B047AC42F7D143460C9901330F930B7899
:1043F00035000C935E46BB464F46002B00D10EE5C0
:104400000D9B002B00D1F6E4002319E60C9B1B78D2
:104410001A0015E710239A430D92EFE60C9B1B78C8
:10442000099361E6002399460028AAD100220023BF
:104430001092119374E70C9B2200187859463B00A8
:10444000A8474C468BE50C9AFA3BFF3B07329A4350
:104450000133994691444B460C9313685268159268
:104460001A4306D11032904300220992002900D04D
:1044700081E06122810600D54122D2B20A9214AABB
:1044800091460A9A00210A3A1492424617925246DD
:1044900018925A460991B3461F311E000F9B49449A
:1044A000BA4619941A950024674698468946159D80
:1044B00016901B920AE03032D2B24B4601341A55A4
:1044C000A8454AD0202C4AD006000D003A0000230F
:1044D00030002900FDF7FAFDD2B2092AEBD9149B6E
:1044E0009C466244D2B2E8E76123820600D54123AC
:1044F000DBB20A3B0C93434614A91F228C4615934A
:1045000053466244A046B2464C461797A946170048
:10451000099D0D9E1490169308E03033DBB20134F0
:104520003B55B5420ED3202C0CD00500310028009D
:10453000FDF78EFDCBB20929EFD90C9A944663445E
:10454000DBB2ECE7159B4D46A14644469846169BC8
:10455000564614989A46179FD0E5B742B2D9179B92
:1045600057469846189B5E469A461B9B09949B4665
:104570001698199C1A9D43460593534604930D9B28
:104580000690039300230293099B05E70F9B984530
:1045900000D914E701330F932DE410231100994340
:1045A0000D91692800D0BAE080231000DB0018408C
:1045B0001A4200D122E61DE60C9B1B68DA0F11009F
:1045C000002B00D18CE0DA179818504014AA9146BD
:1045D00042461F23149252464B44A046A9461697C2
:1045E00004006546B2461F000C91159201E0202D93
:1045F0000FD020000A21FDF72BFD01357E19303147
:10460000317020000A21FDF723FD26000400092E49
:10461000EDD8149B444698460C9BAC461900159B5C
:1046200056464D469A46169F0D9B02910693434669
:104630000593534604930A23039363463CE60028FC
:1046400000D02EE602E60C9B1B689946002B03D196
:1046500010339843002938D16123820600D54123C5
:10466000DBB20A3B0C9343461693534614A91F2210
:104670008C4617932B006244A0464D46B2461897CD
:1046800099461700149C0D9E159008E03033DBB25C
:1046900001343B55B5420ED3202C0CD0050031001F
:1046A0002800FDF7D5FCCBB20929EFD90C9A944626
:1046B0006344DBB2ECE7169B149444469846179B80
:1046C00056464D469A461598189F434605935346BD
:1046D00004930D9B0690039300230293149BEBE538
:1046E0000028A1D172E70C9B1B68D9175A184A40C1
:1046F000A6E580231000DB0018409C460F901A426C
:104700000FD00220030013400F93104219D0002352
:10471000A1460F934CE50C9B1B680993E4E40A0047
:1047200034E40223180010400D90134200D03EE5FF
:104730004346002B00D042E6FFF771FB01330F9395
:104740007FE463460D93F3E710B50C0084B0039447
:10475000012402A902900093034813006242FFF76C
:1047600003FA04B010BDC0463531001010B5094A37
:104770000300146884B0002C08D001220091064880
:10478000524203A9A047012004B010BD00F0B4F9C3
:104790000020F9E7D44600202531001000BEFDE7D7
:1047A000094A03001068002805D00849C3188B4245
:1047B00007D81360704706480449C31810608B423D
:1047C000F7D901204042F5E78C4400200000042086
:1047D0003861002010B5FFF7E1FFC04670B5FDF766
:1047E000E5FA074D074EB54209D20024013E761B7B
:1047F000B60808CD984723000134B342F9D170BD03
:10480000248C00102C8C0010030010B5080011003F
:104810001B68984710BDC046F0B5C64600B5437D3D
:1048200007000C001600002B46D0002A17DD0B787D
:104830000A2B24D000239846012E13D001252900ED
:10484000635C01350A2B26D0B542F8D1464509DC18
:10485000A419013C23780D3B5A4253413B7580BC5F
:10486000B846F0BD4346E018A419F11A013C3B6874
:10487000984723780D3B5A4253413B75EFE7037D40
:10488000002BD7D102210F483B689847012EDFD07B
:1048900001239846D2E7631E5B5C0D2BD4D088457C
:1048A00004DA4346C91AE0183B68984702210548D4
:1048B0003B68A8469847C7E703681100200098475F
:1048C000CDE7C04610900010F0B5C6460B68060054
:1048D0000C0000B5802B06D05A1C2260E41826710B
:1048E00080BCB846F0BD0F4B1D68002D16D00B1DC7
:1048F00098460D4F02E02D69002D0FD02B68002B3C
:10490000F9D03B68002B01D0AB42F4D128004146DE
:104910002268FFF781FF2D69002DEFD101220023CE
:10492000DBE7C0468044002088440020F0B54546BF
:10493000DE464E465746E0B583B091461C008046A1
:104940000D00FCF76BFF0023304A12184B41002B7F
:1049500002DA01222E4B52422E4908008A4604F008
:1049600023F907006B1C03D1404603F051FF0500FB
:10497000002C27D0284E294B1C68002C18D04B4601
:10498000002B21D1264B994602E02469002C0FD040
:104990002368002BF9D04B461B68002B01D09C42AA
:1049A000F3D120002A004146B0472469002CEFD102
:1049B000002F26D1280003B0F0BCBB46B246A94662
:1049C000A046F0BD174ED6E7154B99460A239B46E5
:1049D00002E02469002CEBD02368002BF9D04B4671
:1049E0001B68002B01D0A342F3D12A0041462000CE
:1049F000B0476B465A462000DA71D91D0122B047F4
:104A0000E7E7504604F090F8D4E7C04640420F0074
:104A1000FFFFFF7FD038002019480010804400209D
:104A200088440020094800100A4A1368002B05D169
:104A30000CE01A001B691032002B07D08342F8D11A
:104A4000002902D118691060196170470029FCD053
:104A50001060FAE78044002010B500F0ABF90120A7
:104A600010BDC046F0B5CE46474680B583B06B4614
:104A70000600DD1D2870FCF7D1FE0023194A12182C
:104A80004B41002B02DA0122174B52421749080012
:104A9000884604F089F8164B81461C68002C14D017
:104AA000144F02E02469002C0FD02368002BF9D0AA
:104AB0003B68002B01D09C42F4D120000122290048
:104AC000FFF7AAFE2469002CEFD14B46002B05D13D
:104AD000300003B0C0BCB946B046F0BD404604F05B
:104AE00023F8F5E740420F00FFFFFF7FD03800209A
:104AF000804400208844002070B5040003F088FE44
:104B000001230100050001222000FFF70FFF084BE1
:104B10001C68002C06D06368002B05D098472469D8
:104B2000002CF8D1280070BD2469002CF3D1F9E7DE
:104B300080440020F0B5CE46474680B5A3B00400BF
:104B40000D00FCF76BFE0023274A12184B41002B87
:104B500002DA0122254B5242254E300004F024F89F
:104B600000232200019307002B00224801A9FFF730
:104B7000EBFD214B804699461C68019B002B1AD007
:104B8000002C2FD01D4D02E02469002C0FD023688B
:104B9000002BF9D02B68002B01D0A342F4D12000C8
:104BA000019A02A9FFF738FE2469002CEFD14B4689
:104BB0001C6800230193002C06D06368002B0BD0E7
:104BC00098472469002CF8D1002F07D1404623B024
:104BD000C0BCB946B046F0BD2469ECE7300003F034
:104BE000A3FFF3E70194EFE740420F00FFFFFF7FD1
:104BF000D0380020C948001080440020884400209C
:104C00000FB400B583B004A901C90191FFF792FF69
:104C100003B008BC04B01847F0B5002915DD0E4BF1
:104C20000D271A680D4B0E4CD3185D426B41451889
:104C300020215B001E5F0478A64207D093691942C9
:104C4000FCD101301460A842F5D1F0BD936919423E
:104C5000FCD11760F2E7C046286100200080FCBF4D
:104C600024610020204B70B504000D1E1E682ADD53
:104C7000002010211D4B013C1A689369194214D180
:104C8000013093691942FCD1136823548542F4D151
:104C9000002E08D050239363516B183B0B401449EE
:104CA0008C4662441360280070BD002E08D050234B
:104CB0009363516B183B0B400D498C466244136063
:104CC0000028F1D10CE0002E0AD05022074B1B68BF
:104CD0009A63596B183A0A4005498C4663441A6036
:104CE00003204042E0E7C046444400202861002001
:104CF00034100000064B10B51B68002B06D00021B5
:104D0000044A12689163044A1068984710BDC0466F
:104D10004444002028610020484400200822034B1E
:104D200019688B691A42FCD17047C046286100207F
:104D3000F8B51A4F1A4B3A680500D3185842434148
:104D4000184E14331C003368002D02D0002B0FD0F6
:104D5000F8BD002BFCD0002120009563FBF7F4FE8A
:104D600020001149FBF72CFF104B35601D60EFE769
:104D70000E4B200019600C493560FBF7F7FE01214E
:104D80002000FBF7E1FE50223B689A63596B183A0A
:104D90000A4007498C4663441A60D9E7286100201D
:104DA0000080FCBF44440020F54C00104844002023
:104DB000341000000D4B10B51B780D4B0D4C1B78BB
:104DC0000D4B02211B780D4B00202360FBF764FD87
:104DD00002210120FBF760FDE12120684902FCF778
:104DE000B9FD01210648FFF71FFE10BD74910010A8
:104DF00070910010286100206C9100100040034069
:104E000020330020074B10B59C466044000D01285C
:104E100006D0054A800041180448FBF7F1FD10BD9B
:104E2000034AF7E70000E0AF588D0010544400201B
:104E3000348D0010F0B557464546DE464E4688464E
:104E4000E0B583B006000525FBF7C4FD4346844664
:104E50005D571879334B344AF3181B0D9B0092466B
:104E6000D758012220248240241A013A002D41DB28
:104E7000A54232DC1100A9400F422ED141460968FB
:104E8000894641468979002945D12C00AA4093469C
:104E900059463A40394241D180218901884600284B
:104EA00016D06146A44634004E469946030001914F
:104EB0005100705A404500D24019A918123189009A
:104EC000013208519A42F3D3019B64469C464B46FB
:104ED0005A4617435246D75001E0012464426046C7
:104EE000FBF784FD200003B0F0BCBB46B246A946E8
:104EF000A046F0BD002C02DA10E0013C0ED31100F8
:104F0000A14025000F42F8D1414609688946414633
:104F100089790029BAD014246442E0E70924644264
:104F2000DDE7C0460000E0AF34430020F8B5DE46C0
:104F300057464E4645460C00E0B515000600FBF707
:104F400049FD0523A179824622792068E35600298C
:104F50003DD1002B01DB9D4236D11E4B0127F318BA
:104F60001B0D9B0098461C4997400B008B46414601
:104F70005B58013FAF401900994639401F4220D18C
:104F800080239B019C46002A0BD04B00C45A6445E9
:104F900000D264196B1812339B0001319C518A4274
:104FA000F3D84B463B431F0042465B469F5050465A
:104FB000FBF71CFD2800F0BCBB46B246A946A04644
:104FC000F8BD09256D42F2E70B256D42EFE7142588
:104FD0006D42ECE70000E0AF34430020F0B5DE4660
:104FE00057464E464546E0B51600DC22924685B04F
:104FF0004B0002935B18DB00C518AA445246834657
:1050000028001268CC30009202682B0001921C4AE2
:10501000802094460E9C634480021860002C1DD0B2
:105020008023DB049946012398463300D835E027D6
:105030002E0055469A463F0203912000FCF7DAFF06
:105040004A46430113432B6053464246C340134034
:105050003B433360631E1C40EFD10399029B5B18F6
:10506000DB005B441A000099DC321160019ACC33FA
:105070001A6005B0F0BCBB46B246A946A046F0BDDA
:10508000CC300000F0B5DE4657464E464546E0B50A
:105090001600DC22924685B04B0002935B18DB00C1
:1050A000C518AA445246834628001268CC300092A4
:1050B00002682B0001921C4A802094460E9C634497
:1050C00080021860002C1CD08023DB049946012349
:1050D00098463300D8352E0055469A46134F039113
:1050E0002000FCF787FF4A46430113432B605346D9
:1050F0004246C34013403B433360631E1C40EFD124
:105100000399029B5B18DB005B441A000099DC32B8
:105110001160019ACC331A6005B0F0BCBB46B246B0
:10512000A946A046F0BDC046CC30000080E000009B
:10513000F0B54E464546DE465746E0B583B0894653
:105140000CA984460D781F2A45D84946490088464F
:105150004944C900461837003400DC373868CC347D
:1051600083462068310001901C4880248246A402B6
:1051700051440C6069424D411E216D428D431849D6
:105180008A465544052B0CD9A0201F214005D8364E
:10519000540104430532053B3C600A403560052B51
:1051A000F6D852019B06134342464A44D200624459
:1051B0001000DC3213600300D8331D605B461360BF
:1051C000019BCC300360002003B0F0BCBB46B2466C
:1051D000A946A046F0BD05204042F5E7CC300000CE
:1051E0009FE00000F0B501258D400468AC430460E9
:1051F000002B2ED04D006C18E400041926001F6807
:10520000C83637609F68043677605F68DB68DC34D7
:10521000376023606B18184DDB00AC468025C4183E
:1052200064442D0625602560144C0D1D8C4084605F
:1052300001242600AE40802508318C401F21AD019D
:105240004519C0180A40D8302E602C60026000203A
:10525000F0BD4D006C18E400041926008027C83604
:105260007F023760C0273F03B760F82704367F020C
:10527000DC3437602360CDE7D0100000010101016C
:10528000C27843691A707047F0B5DE464E4645460F
:1052900057464E4BE0B599464D4B87B005934D4B65
:1052A000884604934C4B00909B464B4602920193D8
:1052B000002300260024019D039303E001363635C8
:1052C000052C45D02B78009A0134E4B29342F5D1F5
:1052D0003623019A7343944663441B79DB07EDD56B
:1052E0004346002B02D06B784345E7D1029A002A4F
:1052F00002D0AB789342E1D1052C64D0374B002B20
:1053000002D0200000E000BF0599A946B246002760
:1053100000230D005E460A7810E0F9003368C91BCF
:1053200089005B18002B03D020009B6998472A78DE
:105330000137FFB2511C3B00B94211DBBA42ECD835
:105340009A1AD3009B1A049A9B0094466344EBE795
:1053500000230293039B002B2ED005239846A7E73A
:105360004D462100009802F041F936220021280024
:10537000FDF78EFD28000822FF210D30FDF788FD86
:1053800028001022FF211530FDF782FD144BB34693
:1053900099461B7B5646A34290D10121114B4942AD
:1053A00018689A4603F0E8FB00234A4653735346B5
:1053B000186803F0B9FB81E707B0F0BCBB46B24602
:1053C000A946A046F0BD012303939DE74C40002071
:1053D0002E61002064900010243E00200000000098
:1053E000283E002064420020F0B54E464546DE4689
:1053F0005746E0B5451E0400E8B20E008DB0042803
:1054000000D98FE036216943494BCB5C9846002E8A
:105410002ED1484E737BD9B2022B00D186E00329EE
:1054200051D001291DD1444FFB88002B00D045E20B
:105430000121424D92B249422868F28103F09CFB5F
:1054400003232868737303F06FFB01233A7821006C
:10545000D2095A400023D2014046D2B2009302F052
:10546000E9F80DB0F0BCBB46B246A946A046F0BD77
:1054700004AF3A00304B03CB03C202AB9C46112071
:105480001500604402220021FDF702FD01212C706D
:10549000284CEE70E389294E6B6023684942EB602B
:1054A000636830682B61A368AF606B6103F064FBD5
:1054B00000233068637303F037FB2B69002BD0D0D7
:1054C00028009847CDE71C4F7B78092B3AD01B4B1F
:1054D000984604AB994606CF06C31D0002AB9C4616
:1054E0001120022260440021FDF7D2FC2C70002420
:1054F000EC70F38901216B604B46AB603368494225
:10550000EB6073682B61B3686B614346186803F006
:1055100033FB43461868747303F006FB2B69002BBA
:10552000CED19EE7064B1B78984670E7024F7FE787
:105530004C400020283E00205C41002064420020B6
:10554000383E00203B78002BC1D10428BFD836203C
:105550002222684382469046E44B9946534498443D
:1055600043465B79DB0700D4BDE14B4601222100B5
:10557000185C02F06BF8434601225B795046934376
:1055800042465371DA4B273019684844984602F076
:10559000BBF823216B005B19DA009B1803933623B9
:1055A0004A468A466B43D218924452465279D207F1
:1055B00013D54A462100D05C812202F047F85246BA
:1055C000537901229343524653714246039811681E
:1055D00014304000484402F097F8362024226843F3
:1055E0004B468246934653449B445B465B79DB07BC
:1055F00012D54B4602222100185C02F027F85B46C8
:1056000001225B79504693435A46537143462930F1
:105610001968484402F078F8252136234A468A461C
:105620006B43D218924452465279D20713D54A4658
:105630002100D05C822202F009F8534601225B79F6
:1056400003989343524653714346153040001968FE
:10565000484402F059F83620262268434B468246D9
:10566000934653449B445B465B79DB0712D54B461C
:1056700003222100185C01F0E9FF5B4601225B79FF
:10568000504693435A46537143462B301968484459
:1056900002F03AF8272136234A468A466B43D2184D
:1056A000924452465279D20713D54A462100D05C23
:1056B000832201F0CBFF534601225B790398934389
:1056C000524653714346163040001968484402F070
:1056D0001BF83620282268434B46824693465344A3
:1056E0009B445B465B79DB0712D54B4604222100C5
:1056F000185C01F0ABFF5B4601225B795046934397
:105700005A46537143462D301968484401F0FCFF56
:10571000292136234A468A466B43D2189244524680
:105720005279D20713D54A462100D05C842201F079
:105730008DFF534601225B79039893435246537180
:105740004346173040001968484401F0DDFF362019
:105750002A2268434B468246934653449B445B4609
:105760005B79DB0712D54B4605222100185C01F05E
:105770006DFF5B4601225B79504693435A46537155
:1057800043462F301968484401F0BEFF2B213623D1
:105790004A468A466B43D218924452465279D207FF
:1057A00013D54A462100D05C852201F04FFF5346B5
:1057B00001225B7903989343524653714346183054
:1057C00040001968484401F09FFF36202C226843AE
:1057D0004B468246934653449B445B465B79DB07CA
:1057E00012D54B4606222100185C01F02FFF5B46C4
:1057F00001225B79504693435A46537143463130F8
:105800001968484401F080FF2D2136234A468A4614
:105810006B43D218924452465279D20713D54A4666
:105820002100D05C862201F011FF534601225B79F2
:105830000398934352465371434619304000196808
:10584000484401F061FF36202E2268434B468246D1
:10585000934653449B445B465B79DB0712D54B462A
:1058600007222100185C01F0F1FE5B4601225B7902
:10587000504693435A46537143463330196848445F
:1058800001F042FF36234A466B43D5182F356A791B
:10589000D20700D41DE64A462100D05C872201F0E1
:1058A000D5FE01226B79039893436B7143461A30FE
:1058B00040001968484401F027FF0AE60C4D023900
:1058C000286803F059F902232868737303F02CF950
:1058D00080213A7833680A40F988404600912100D7
:1058E00001F0A8FEBDE5024B984652E64C40002070
:1058F000644200207047C046F0B54F464646D64643
:10590000C0B5404F05003B780E00984210D0FF2BE9
:1059100010D0310028003D7001F026FE002804D18F
:10592000E0BCBA46B146A846F0BD280001F064FECE
:105930000120F5E7344C2000143CFBF7C3FA2000AB
:1059400002F026F8314B1C60314C2000FBF7ACFA1A
:10595000304B1C60304B002B50D0304B1800984619
:1059600000E000BF2E4B186000222E4B2E4C1A6018
:105970000F320021FF322000FDF78AFA10220021A9
:105980002A48FDF785FA87235B009946A144362211
:1059900000212000FDF77CFA20000822FF210D30B5
:1059A000FDF776FA20001022FF2115303634FDF77E
:1059B0006FFAA145EBD143461D491A788A4618492A
:1059C00000240023894611E04B46E1001B68091BB7
:1059D00089005B18002B03D05B68984743461A7810
:1059E0000134E4B2511C2300A14292DBA242EBD865
:1059F0009A1AD3009B1A9B005344EDE7074B984635
:105A0000B2E7C046543300204C33002070420020DF
:105A10006842002064420020000000002E61002047
:105A2000243E0020383E00204C400020283E00202C
:105A300064900010F0B5CE46474680B54378040028
:105A400083B0002B14D18368002B11D00578002D72
:105A500015D0691ECBB2042B0AD836224A433F4BDD
:105A60009B181B79DB0703D53D4E737B002B0ED0B3
:105A70000025280003B0C0BCB946B046F0BD394B84
:105A8000DB78DB06F4D5364E737B002BF0D1012199
:105A9000354F4942386803F06FF8737B3F68DAB2DC
:105AA000002B03D0380003F03FF8E1E70123357302
:105AB0007373E368A16833602369F281736063697B
:105AC0000822B360294B18009846FDF7E7F9380023
:105AD00003F02AF8691ECBB2042B3BD836224A4386
